:100000000C942A000C943F000C943F000C943F0089
:100010000C943F000C943F000C943F000C943F0064
:100020000C943F000C943F000C943F000C943F0054
:100030000C943F000C943F000C943F000C943F0044
:100040000C943F000C943F000C943F000C943F0034
:100050000C943F0011241FBECFE5D4E0DEBFCDBF1E
:1000600010E0A0E6B0E0EEE6F6E002C005900D92EA
:10007000AE39B107D9F70E9497010C9435030C945F
:10008000000089B38E3F41F489B38E3FE9F381E0EC
:1000900088BB21E030E04DC089B38D3F41F489B386
:1000A0008D3FE9F382E088BB22E030E042C089B3B3
:1000B0008B3F41F489B38B3FE9F384E088BB23E0B5
:1000C00030E037C089B3873F41F489B3873FE9F314
:1000D00088E088BB24E030E02CC089B38F3E41F437
:1000E00089B38F3EE9F380E188BB25E030E021C091
:1000F00089B38F3D41F489B38F3DE9F380E288BB3A
:1001000026E030E016C089B38F3B41F489B38F3BC2
:10011000E9F380E488BB27E030E00BC089B38F3778
:1001200009F0AFCF89B38F37E9F380E888BB28E0C7
:1001300030E0822F932F089549B34E3F91F449B395
:100140004E3FE9F341E048BB680F791F882777FDF0
:100150008095982F0E949D020E946A02862F972FF9
:10016000089549B34D3FA1F449B34D3FE9F342E04F
:1001700048BB9C01261B370BB901882777FD80956A
:10018000982F0E949D020E946A02862F972F089541
:1001900049B34B3FC1F449B34B3FE9F344E048BB9B
:1001A000869F9001879F300D969F300D1124B901D5
:1001B000882777FD8095982F0E949D020E946A02F1
:1001C000862F972F089549B3473F09F0B5CF49B31C
:1001D000473FE9F348E048BB0E940103882777FDC9
:1001E0008095982F0E949D020E946A02862F972F69
:1001F00008959C01207F33272C5F25BBE9EFF0E0B9
:100200003197F1F700C0000095B3945095BB8295EB
:10021000807F8C5F85BB89EF90E00197F1F700C08C
:10022000000085B3845085BB08959C01207F33274F
:100230002B5F25BBE9EFF0E03197F1F700C000003C
:1002400025B3245025BB82959295907F9827807F77
:1002500098278B5F85BB89EF90E00197F1F700C08D
:10026000000085B3845085BB0895CF93DF93EC01E4
:100270008881882339F0219690E00E9415018991A8
:100280008111FACFDF91CF9108950F931F93CF93F0
:10029000DF93EC01009781F580E390E00E94150167
:1002A00084E090E00E94F90022C09E01ADECBCEC1D
:1002B0000E9415038C0116950795169507951695BE
:1002C00007959801220F331FC801880F991F880FC7
:1002D000991F880F991F820F931F9E01281B390BAE
:1002E000C901C0960E941501E8012097F1F686E049
:1002F00090E00E94F90005C084E090E00E94F900BF
:10030000D4CFDF91CF911F910F91089582E090E0BB
:100310000E94F90088E290E00E94F9008CE090E0F1
:100320000E94F90086E090E00E94F90008951ABA50
:100330008FEF87BB8BBB84BB0E948601E12CF12C25
:100340006894DD24D4F880E890E00E94F90080E60B
:1003500090E00E9435012FE38DE093E02150804032
:100360009040E1F700C0000081E090E00E94F900B9
:1003700083EF91E00197F1F700C0000080E890E082
:100380000E94F90088E690E00E943501870114C0C0
:100390009801220F331F000F111F000F111F000FB4
:1003A000111F020F131F080F191F84EC90E00E9409
:1003B000F900C8010E9445010E9441008830910562
:1003C00039F787EA91E60197F1F700C0000081E074
:1003D00090E00E94F90083EF91E00197F1F700C0EF
:1003E000000080E890E00E94F90087E790E00E941A
:1003F0003501E70114C09E01220F331FCC0FDD1F12
:10040000CC0FDD1FCC0FDD1FC20FD31FC80FD91FAC
:1004100084EC90E00E94F900CE010E9445010E9408
:1004200041008830910539F787EA91E60197F1F7A5
:1004300000C0000081E090E00E94F90083EF91E0AD
:100440000197F1F700C0000080E890E00E94F900F9
:1004500087E890E00E94350115C089B38F3EE9F32B
:10046000D8BA83EC99E00197F1F700C0000081E071
:1004700090E00E94F90083EC99E00197F1F700C049
:10048000000061CFBE01C8010E949C005C0183ECAA
:1004900099E00197F1F700C0000081E090E00E9430
:1004A000F90083EC99E00197F1F700C0000080E8C3
:1004B00090E00E94F90087E990E00E94350184EC09
:1004C00090E00E94F900C5010E94450189B38F3E6A
:1004D000C9F6C3CF04D06894B1118DC0089570D00F
:1004E00088F09F5790F0B92F9927B751A0F0D1F01D
:1004F000660F771F881F991F1AF0BA95C9F712C0A7
:10050000B13081F077D0B1E0089574C0672F782FB3
:100510008827B85F39F0B93FCCF386957795679512
:10052000B395D9F73EF490958095709561957F4F7E
:100530008F4F9F4F0895E89409C097FB3EF4909524
:100540008095709561957F4F8F4F9F4F9923A9F0AC
:10055000F92F96E9BB279395F6958795779567953B
:10056000B795F111F8CFFAF4BB0F11F460FF1BC07F
:100570006F5F7F4F8F4F9F4F16C0882311F096E912
:1005800011C0772321F09EE8872F762F05C06623C0
:1005900071F096E8862F70E060E02AF09A95660F79
:1005A000771F881FDAF7880F9695879597F9089532
:1005B00057FD9058440F551F59F05F3F71F0479514
:1005C000880F97FB991F61F09F3F79F087950895F9
:1005D000121613061406551FF2CF4695F1DF08C018
:1005E000161617061806991FF1CF86957105610535
:1005F00008940895E894BB2766277727CB0197F9DD
:10060000089597FB072E16F4009407D077FD09D0C4
:100610000E94210307FC05D03EF4909581959F4FE1
:100620000895709561957F4F0895A29FB001B39F83
:10063000C001A39F01D0B29F700D811D1124911D97
:100640000895AA1BBB1B51E107C0AA1FBB1FA61719
:10065000B70710F0A61BB70B881F991F5A95A9F76B
:0E06600080959095BC01CD010895F894FFCFD0
:10066E0057454C434F4D4500456E74657220666983
:10067E00727374206E6F00456E74657220736563BD
:10068E006F6E64206E6F00456E746572206F7065BC
:0E069E00726174696F6E006F75747075740010
:00000001FF
